:10000000802700201D1E0000D3700000F11D00009D
:10001000F11D0000F11D0000F11D000000000000B6
:10002000000000000000000000000000511A000065
:10003000F11D000000000000FD190000F11D00008E
:10004000011B0000011B0000011B0000011B000040
:10005000011B0000011B0000011B0000011B000030
:10006000011B0000011B0000011B0000011B000020
:10007000011B0000011B0000011B0000011B000010
:10008000011B0000011B0000011B0000011B000000
:10009000011B0000011B0000011B0000011B0000F0
:1000A000011B0000011B0000011B0000011B0000E0
:1000B000011B0000011B0000011B0000011B0000D0
:1000C000011B0000011B0000011B0000011B0000C0
:1000D000011B0000011B0000011B0000011B0000B0
:1000E000011B0000011B0000011B0000011B0000A0
:1000F000011B0000011B0000011B0000011B000090
:1001000053B94AB9002908BF00281CBF4FF0FF317E
:100110004FF0FF3000F00CB8ADF1080C6DE904CEE3
:1001200000F008F8DDF804E0DDE9022304B07047D0
:10013000704700BF2DE9F04786468C460846089E6A
:10014000154674461946002B40F0C2808542B2FA2B
:1001500082F245D94AB1C2F1200300FA02FC2EFA1C
:1001600003F3954043EA0C0C94404FEA154EA8B2B5
:10017000BCFBFEF8230C0EFB18CC08FB00F943EA8D
:100180000C43994528D9EB1808F1FF3704D299455B
:1001900002D9A8F102072B44A3EB0903A4B2B3FBD5
:1001A000FEFC0EFB1C330CFB00F044EA0344A042AF
:1001B00014D92C190CF1FF3304D2A04202D9ACF1AE
:1001C00002032C44241A43EA07401EB1D440002302
:1001D00034607360BDE8F0874746DDE76346F1E7CA
:1001E00092BB431B01214FEA154EAFB2B3FBFEFC9D
:1001F000200C0EFB1C330CFB07F840EA0343984528
:1002000062D9EB180CF1FF3004D2984502D9ACF159
:1002100002002B44A3EB0803A4B2B3FBFEFC0EFBCD
:100220001C330CFB07F744EA0344A7424ED92C19B0
:100230000CF1FF3304D2A74202D9ACF102032C44E3
:10024000E41B43EA0040C0E7C2F1200320FA03F1B7
:10025000954090402EFA03F303434FEA154EAFB298
:10026000B1FBFEFC0EFB1C10190C0CFB07F841EA5D
:100270000041884504FA02F422D969180CF1FF30D4
:1002800004D2884502D9ACF102002944A1EB08014F
:100290009BB2B1FBFEFC0EFB1C110CFB07F743EA03
:1002A00001439F420ED9EB180CF1FF3104D29F425B
:1002B00002D9ACF102012B44DB1B41EA004192E779
:1002C0006046E3E76146F7E76046A3E76346B7E7C2
:1002D000834206D916B9002108467BE7C6E900E04B
:1002E000F9E7B3FA83F78FB9834201D3724508D88F
:1002F000BEEB020460EB030301209C461EB9002103
:1003000068E73846FAE7C6E9004CF8E7C7F1200C81
:10031000BB4022FA0CF41C432EFA0CF120FA0CF329
:10032000B84001434FEA14490EFA07F5B3FBF9F858
:100330001FFA84FE09FB18300B0C08FB0EFA43EA87
:1003400000439A4502FA07F240D9E31808F1FF305A
:1003500004D29A4502D9A8F102002344A3EB0A0370
:1003600089B2B3FBF9F809FB183308FB0EFE41EA2A
:1003700003418E452CD9611808F1FF3304D28E4514
:1003800002D9A8F10203214443EA0040A0FB0298ED
:10039000A1EB0E014145CE46434602D306D14D4561
:1003A00004D2B9EB020E68EB04030138002EA6D08C
:1003B000B5EB0E0261EB030101FA0CFC22FA07F324
:1003C0004CEA0303F940C6E9003198E74046C5E727
:1003D0004346D9E72DE9FF472E482F4E2F4FDFF830
:1003E000C08006F04DFD07F04CFA012203230446BD
:1003F0000D46019602928DF80C30BB682748D3F861
:10040000089001A94D23C8473178C8F80000254855
:1004100006F036FD07F035FA234B4FF47A79D3F81E
:1004200000A0A4FB0942A0FB090309FB013109FB61
:100430000522C30BE40B43EA414344EA42441B1B3D
:100440004FEAD13161EBD2314FEAEA725345914123
:100450001BDA07F016FAA0FB090309FB0131C30BF5
:1004600043EA4143AAEB030A2AEAEA7A4FF400443A
:1004700040F2E73000214FF47A720023CAFB0401F6
:10048000FFF73EFE05F0D8FEADE7084806F0F8FCA1
:10049000A9E700BF047E0000180D0020907900003D
:1004A0001C040020177E000000000020297E0000B0
:1004B0002DE970434FF0000888B04FF00009002488
:1004C0000526CDE90689CDE90364CDE90144134B46
:1004D000134900944FF480621248134D04F0ECFB72
:1004E0002860124B12490094CDE90689CDE90364D6
:1004F000CDE901444FF480620E4804F0DDFB286032
:100500000D4807F054F928B90C4808B0BDE870430D
:1005100006F0B6BC08B0BDE8708300BFD50300008C
:100520008015002070020020180400207B6E00005F
:1005300040110020F001002090790000457E00006D
:10054000014B1B68184700BF04000020014B1860D6
:10055000704700BF0400002007B50B46002102468B
:100560000091034800F050FB03B05DF804FB00BFAE
:1005700041050000B2F5802FF8B504460ED33B4983
:100580003B4A3C4840F2EB1306F087FD3A4806F040
:1005900084FD40F2EB11364806F078FD042A0CD8B1
:1005A0003649334A33484FF4F97306F076FD344840
:1005B00006F073FD4FF4F971EDE7043AC81D0A44E3
:1005C00020F0070022F00702121A172A4FEAD2037E
:1005D0000CD82C49264A274840F2FB1306F05DFD53
:1005E000274806F05AFD40F2FB11D4E7B3FA83F135
:1005F000C1F12006C1F1240189000731C9084D1C51
:1006000020609D424FF000048360C4600CD91E49F5
:10061000174A18484FF4037306F03FFD184806F0D8
:100620003CFD4FF40371B6E700F10C0505EB8606BF
:1006300045F8044FB542FBD14D0045F0010545801A
:1006400000EBC1065D1A6F0004807780861820F8E1
:10065000311000EBC303748085525A8842F00102C6
:100660005A80BDE8F84006F027BC00BF5A7F000062
:10067000717E0000A37E0000707F0000877F000075
:10068000A87F0000C17F0000EA7F00002DE9F84F3D
:1006900004460846A38B1907154612D4022803F016
:1006A000070164D1204606F02EFC88B101380428E9
:1006B00000F23481DFE810F05B0032018100D100EC
:1006C000010101280CBF43F0100143F02001A18378
:1006D0001434204604F0C8FB002840F09B81984960
:1006E000984A9948C22306F0D8FC2146B0E003F0AE
:1006F0000702501F01281ED80020062A2768C4E9D7
:10070000000014D13A4603E0E08B0130E083126828
:10071000002AF9D123F0070343F00202A283204606
:1007200006F0F1FB90B342F02002A2832EE023F00A
:1007300007039AB2F2E7042A33D123F007039AB2EF
:10074000A283204606F0DFFB10B142F02002A28314
:10075000A38B03F00709894540F0EA80A18BCA0604
:1007600040F14F8121F01003A38301F00701D4F879
:100770001880A38BB8F1000FB9DA0022276823F0A4
:100780000703C4E9002243F00103A383A38B03F012
:100790000709894540F0CD80002FDFD00026B24602
:1007A00044E06A496A4A684840F21B1306F075FC47
:1007B00040F21B11664806F069FC49B16549644A7C
:1007C00061484FF4AB7306F068FC4FF4AB71F1E78E
:1007D00023684BB960495E4A5B4840F2571306F004
:1007E0005CFC40F25711E5E723691E684EB95B498E
:1007F000574A55484FF4AD7306F04FFC4FF4AD71B6
:10080000D8E7A38B23F0070343F006039BB2A3832F
:100810000F4688464FF00609A268002A40F08B80F8
:10082000002F40F08B80002E98D0BA4643F008038A
:1008300004F1140BA383584604F016FB002840F083
:1008400097803F493F4A4048C22306F026FC59465C
:10085000434806F022FCC221AEE0022909D04149FA
:100860003B4A394840F25D1306F017FC40F25D1137
:10087000A0E7E78B4FB13C49354A33484FF4AF739B
:1008800006F00BFC4FF4AF7194E723695E684EB934
:1008900032492F4A2C4840F2611306F0FEFB40F229
:1008A000611187E7A38B23F0070343F004039BB296
:1008B000A383B8464FF00409AEE7012909D02B49BC
:1008C000234A21484FF4B27306F0E7FB4FF4B271AC
:1008D00070E723684BB920491D4A1B4840F2651355
:1008E00006F0DBFB40F2651164E723699E684EB9B0
:1008F0001A49174A14484FF4B47306F0CEFB4FF46C
:10090000B47157E7A38B23F0070343F005039BB2B1
:100910000027A383B8464FF005097DE70B490C4A31
:10092000094840F26B1306F0B8FB40F26B1141E747
:100930000027002670E74FF0010A77E7924675E737
:10094000E5800000B8800000A37E0000A0800000C9
:1009500015800000378000004380000066800000A2
:10096000FC8000007D80000093800000A2800000D9
:1009700085F31188BFF36F8FBAF1000F1ED1002FDE
:100980002FD116B126492046B0474FF02003EFF390
:10099000118583F31288BFF36F8F584604F056FA1F
:1009A00038BB204A20492148942306F076FB59465B
:1009B0001F4806F072FB94211A48FCE6A168002942
:1009C000DDD00D680029DAD0D1F804A043464A46AC
:1009D0002046D0471DB12B6829461D46F2E72B461D
:1009E000FAE7394643464A4620463F6806F0B7FADA
:1009F000C5E7584604F048FAA38B23F00803A38305
:100A0000ACE68B067FF564AE21F02003A38301F0F2
:100A1000070147E685F31188BFF36F8FBDE8F88FB4
:100A2000350A0000B880000011810000A37E00009C
:100A300026810000F8B504460D4600F114064FF07B
:100A40002003EFF3118783F31288BFF36F8F3046D3
:100A500004F0FCF968B90C4A0C490D48942306F0DF
:100A60001CFB0C48314606F018FB0748942106F0A1
:100A70000DFB304604F008FAA5613A4620460121F4
:100A8000BDE8F840FFF702BEB88000001181000009
:100A9000A37E0000268100002DE9F04704460F46A2
:100AA00006F04DFA051E67DB04F114094FF0200330
:100AB000EFF3118A83F31288BFF36F8F484604F077
:100AC000C5F9804660B9384A38493948942306F058
:100AD000E4FA4946374806F0E0FA9421324840E00B
:100AE000484604F0D1F9E38BA68B4FF6FF72934290
:100AF00006F0070643D0022E13D10133E3833546B7
:100B0000484604F0B1F900283FD1274A2A4928482D
:100B1000C22306F0C2FA4946284806F0BEFAC221AE
:100B2000DCE7062E13D8DFE806F0092D12120904BF
:100B300009006FF085054FF00008E1E700233B60F6
:100B4000636883B9C4E9007786B13546F3E71C4989
:100B500017481C4A4FF4E47306F09FFA19484FF403
:100B6000E47106F093FA1F606760EDE752460221D8
:100B70002046FFF78BFD35462846BDE8F0876FF02D
:100B80000A05D8E76FF00405D5E78AF31188BFF3AB
:100B90006F8FB8F1000FEFD0002332463946204660
:100BA00006F0DDF9E8E700BFB88000001181000021
:100BB000A37E000026810000E5800000FC8000008C
:100BC000A28000001580000008B54268816002F034
:100BD0000302032A034602D02AB1002000E0006885
:100BE00000225A6008BD05490548064A452306F01B
:100BF00054FA0448452106F049FA00BFA0800000DD
:100C0000A37E00003E8100002DE9F04F814695B0A3
:100C10008B4617461C460025387808B9284658E305
:100C20007B1C2528039306D05946C8470028C0F2EC
:100C300050830135FBE1182200210EA806F075FA59
:100C40007B78252B7DD00023781C98469E469C46B9
:100C50001E46014610F8012B2B2A00F0A18000F25D
:100C60009880202A00F09F80232A00F09F802BB1DB
:100C70009DF8403043F040038DF84030B8F1000F4C
:100C800005D09DF8403043F020038DF84030BEF190
:100C9000000F05D09DF8403043F010038DF8403030
:100CA000BCF1000F05D09DF8403043F008038DF8EB
:100CB00040302EB19DF8403043F004038DF84030B1
:100CC0009DF8403003F04400442803D16FF38613AD
:100CD0008DF840309DF840302A2A43F080038DF88B
:100CE00040307FD19DF8412042F001024B1C8DF82D
:100CF00041201A782E2A9DF841200CBF01210021A5
:100D000061F341028DF8412078D15A782A2A6ED0B9
:100D1000013300224FF00A0C194611F8010BA0F123
:100D20003006092E40F295809DF840101292C1F3D2
:100D3000400040EAD2700A4660F341028DF840203C
:100D40005CE0BA1C03928DF843309DF84130DA071D
:100D500040F12E8154F8048BB8F1000F07DA9DF8AA
:100D6000402042F004028DF84020C8F100085E07E0
:100D700040F1278154F804ABBAF1000F80F22681CC
:100D80009DF841306FF341038DF841304FF0FF3A49
:100D90001CE12D2A0DD0302A7FF469AF012358E7DA
:100DA0004FF0010C55E74FF0010E52E74FF00108EC
:100DB0004FE701264DE70EFB0262303A0346184624
:100DC00010F8016BA6F1300CBCF1090FF3D9994270
:100DD0008FD09DF840101192D20F62F341018DF82F
:100DE000401086E70B4600224FF00A0EE7E79DF819
:100DF000412042F004028DF8412002331A786C2A17
:100E000047D02BD8682A31D06A2A4BD04C2A51D0EF
:100E10001A4612F8013B0392782B9DF841208DF879
:100E2000433000F2BE806D2B51D8692B00F2B9809F
:100E3000572B67D8412B03D0453B022B00F2B180E2
:100E40009DF84230042262F302038DF84230012300
:100E500073E00CFB0202303A0B465DE7742A25D0A2
:100E60007A2AD5D19DF8412006210CE05A78682ACB
:100E70009DF8412006D1012161F3C6028DF8412081
:100E80000233C5E7022161F3C6028DF84120013328
:100E9000BEE75A786C2A9DF8412001D10421EBE786
:100EA0000321F0E79DF841200521ECE79DF8412062
:100EB0000721E8E7BDF8402022F4F04222F00202C8
:100EC00042F4804242F00202ADF84020DFE76E3B80
:100ED000D9B201238B4040F282410B4237D113F04B
:100EE000240F51D1D8075CD59DF84230032161F31E
:100EF00002038DF8423002F07803A3F140014B4227
:100F00004B411AE0A3F15801C9B2012000FA01F1E6
:100F100011F4624F94D140F6010631421DD111F413
:100F2000043F3ED09DF8423060F3020302F07802A5
:100F3000402A8DF8423034D000239DF84020C2F37F
:100F400040010B4363F341028DF84020FDE69DF81C
:100F50004230022161F30203E8E79DF842100220CB
:100F600002F0780260F30201402A8DF8421002BFBD
:100F70009DF8401041F001018DF84010632BDBD14A
:100F8000131E18BF0123D8E79DF84230032161F3F7
:100F9000020312F0780F8DF8423014BF01230023B2
:100FA000CBE79DF8403043F001038DF84030C3E7B4
:100FB0009DF94020002AB4BFDDF844804FF0FF388F
:100FC000D5E698077FF5E2AEDDF848A09DF8411020
:100FD0000023CDE911339DF8423003F00703012BC4
:100FE000C1F3C30133D1CB1E042B04D8DFE803F0D7
:100FF000214646212100236801294FEAE372CDE909
:101000000E321CD19DF93830DA17CDE90E32043496
:101010009DF8403013F0030650D0039B3A465946E2
:10102000484606F01CF80028C0F253810544039F8F
:10103000F2E554F8043BDA17CDE90E32E8E702296D
:10104000E5D11AB243F3C033CDE90E23DFE7022B1B
:1010500024D1CB1E042B04D8DFE803F0181010189D
:101060001800012954F8043B4FF0000214D0022963
:10107000CDE90E32CCD19BB20E93C9E7073424F0F0
:101080000704F4E80223CDE90E23C1E754F8043B3A
:101090000E9300230F93BBE7DBB2CDE7042B08D1FF
:1010A000073424F00704D4E900230834CDE90E23E3
:1010B000AEE7032BACD154F8043BDDE79DF84300C9
:1010C0007828B4D862281CD825283FF4ADAD58281C
:1010D000ADD10DF136030093DDE90E0108AB10AA86
:1010E00005F077FFBAF1000F074680F29A80002FD3
:1010F0009DD00DF13603D81B002E00F0C1800130C9
:10110000BEE06338152892D801A252F820F000BF43
:10111000E5110000F71100002F1000002F10000053
:101120002F1000002F100000F71100002F100000FA
:101130002F1000002F1000002F100000851200005B
:101140001D120000431200002F1000002F1000009D
:10115000691100002F1000001D1200002F10000068
:101160002F1000001D120000BAF1000F0E9F35DB9A
:101170005146384605F0C5FF07EB000A002F3FF443
:1011800056AF00269DF8423013F01002059200F091
:10119000938002305B06119A48BF129B0492104460
:1011A00048BFC018B8F1000F40F3A0809DF8402060
:1011B000A8EB0008C2F380035007069300F1968065
:1011C000510640F189803EB159463046C847002853
:1011D0007FDB069B01351E4630227EE0384605F057
:1011E00089FFC9E70E9B8DF82030002608AF0DF16E
:1011F000210A0120C6E719075CBFC3F300135E0193
:10120000DDE90E2348BF2B26002BBFF662AF52420A
:1012100063EB4303CDE90E232D265AE7002658E75A
:1012200000269DF840200DF13603DB1B6FF386127C
:101230009A458DF840207FF65AAFAAEB030311932D
:1012400055E70E9890B30DF13603009310AA08AB42
:10125000002105F0BEFEBDF8423003F0EF0343F479
:10126000F04343F01003BAF1000F0746ADF84230E7
:10127000D6DA00283FF4DBAE0DF13603181A00264B
:101280009A467FE70E9B07293FF6D1AEDFE801F0D3
:101290000C04060C08080C0C1D70C8E61D80C6E680
:1012A000EA17C3E90052C2E61D60C0E62E4F0646AB
:1012B00007F1050A052065E71A0748BF013069E70D
:1012C0000793104606925946C8470028DDE90623D1
:1012D00004DA15B0BDE8F08F2022434619460029F4
:1012E00003F1FF33ECDC45446D1A98462EB15946A4
:1012F0003046C8470028ECDB01359DF84230DA065D
:1013000001D41B0705D559463020C8470028E0DB2B
:101310000135059B33B19DF843005946C847002865
:10132000D7DB0135049E2E4405E059463020C847DE
:101330000028CEDB0135731B002BF6DC53463A4602
:101340005946484605F08BFE0028C2DB0544A844F8
:10135000A8EB0503002B7FF76AAE59462020C8474B
:101360000028B6DB0135F3E76181000008B54FF0D6
:101370002002EFF3118382F31288BFF36F8F00F026
:1013800031FF034805F07CFD00F094FAFCE700BF54
:101390006781000001F0CCBF2DE9F84305464FF00E
:1013A0002003EFF3118683F31288BFF36F8F204879
:1013B00003F04CFD68B91F4A1F492048942305F0EB
:1013C0006CFE1B491E4805F068FE9421194805F083
:1013D0005DFE17481B4FDFF8708003F055FD1B4B77
:1013E0001C684FF00C097CB9114803F03DFDC8B9E9
:1013F000104A17491148C22305F04FFE0C49154801
:1014000005F04BFEC221E1E7D4E90123002D18BF0E
:1014100013462BB198F8142009FB02F2B85C9847E8
:101420002468E0E786F31188BFF36F8FBDE8F88387
:1014300020040020B880000011810000A37E00007D
:101440002681000034040020F80A00204004002017
:10145000E5800000FC80000070B5194B1C7DBFF3D7
:101460005B8F04F01F0301229A40164B610903EBC6
:101470008103D04353E8001F01EA000543E800560A
:10148000002EF7D1BFF35B8F0A4213D00E4B0F4DE6
:101490008BB10C236343EA18E85C517805F05DFEDC
:1014A0000020FFF779FF0C235C432A1900232B51FE
:1014B000C2E9013370BD83F31188BFF36F8FEFE78B
:1014C000F80A0020480400205B710000340400206A
:1014D0002DE9F041474B07461D7D4FF02003EFF308
:1014E000118883F31288BFF36F8F434803F0AEFC7B
:1014F00068B9424A42494348942305F0CEFD3E492B
:10150000414805F0CAFD94213C4805F0BFFD3A482A
:101510003E4E0C2403F0B8FC6C433D4B195D1A1988
:10152000B9B107CA06EB040C8CE8070000221A5573
:10153000314803F099FC0446B0B9304A3549314886
:10154000C22305F0AAFD2C49334805F0A6FDC221AF
:10155000DAE73946284600F069F80028E8D007C8DD
:10156000344484E80700E3E788F31188BFF36F8F02
:101570000C236B43F218F35C002B39D07B1C0FD08B
:10158000D2F808E02548264A4FF4004C00210023F9
:10159000EEFB0C01FEF7B4FD0121381A05F00EF93F
:1015A00004F092F80120FFF7F7FEBFF35B8F1D4BAD
:1015B0006A0903EB820305F01F0101228A4053E808
:1015C000000F104343E800010029F8D1BFF35B8FFF
:1015D000154B33B10C236B43F218F05C517805F0D6
:1015E000B0FDFFF739FF04F0DBF82046BDE8F081DD
:1015F0001C46FAE7F80A002024040020B880000006
:1016000011810000A37E0000268100003404002028
:1016100028040020E5800000FC8000003F420F000D
:1016200040420F0048040020437100002DE9F04FB4
:1016300085B00E4603A900F043F81E4B039DD3F876
:1016400000A0DFF87480431E1BB203EB4303044683
:1016500005EB83054FF400474FF0000B24B9A1467A
:10166000484605B0BDE8F08F6868144AC44659463C
:10167000E0FB07C100236046FEF742FD0190A86829
:101680000E4AC4465946E0FB07C100236046FEF7F8
:1016900037FDBAF1FF3FA94601D0824505D9731C39
:1016A000DED0019B1844B042DAD9013CA4B20C3D13
:1016B000D4E700BF080000203F420F0040420F0067
:1016C00008B9024B0B600020704700BFC87B0000C8
:1016D000014805F02DBA00BFC87B000038B50446AC
:1016E00018B90F4B0F485B6898476168B1F5683FC0
:1016F0000FD0B1F5680F0CD00B4DA94209D011F4F1
:10170000686107D00948214603F01CFA00232360D2
:10171000656038BD2068142205F007FDF8E700BFBA
:101720001C010020938100002C5F5CA94C09002063
:1017300008B520B34368B3F5683F10D101220368B0
:10174000BFF35B8F53E8001F002903D143E800205B
:101750000028F7D1BFF35B8F0DD1002008BD094AE7
:1017600093420AD000684FF0FF324FF0FF3303F08E
:10177000C5FB0028F1D00448F0E70448EEE76FF419
:10178000E040EBE72C5F5CA9E98FFFFFEA8FFFFFEA
:1017900008B5D8B14368B3F5683F10D1002203689B
:1017A000BFF35B8F53E8001F012903D143E80020FA
:1017B0000028F7D1BFF35B8F0BD1002008BD074A8B
:1017C000934208D0006803F069FCF6E76FF4E0404C
:1017D000F4E70348F2E70348F0E700BF2C5F5CA999
:1017E000E98FFFFFEA8FFFFF10B5044618B91D4BC4
:1017F0001D485B6898476368B3F5683F2FD0B3F521
:10180000680F2CD0194A934219D1236803BB18489A
:101810004FF0FF324FF0FF33214603F029F908B9AA
:1018200023681BB90F4B13485B6898472068142244
:10183000002105F07AFC4FF46863636008E0B3F5BB
:10184000683F0DD83A2B03D040F6BA629342DED1FE
:10185000206805F0F5FF636843F03A03636010BD4C
:10186000054AF3E71C010020938100002C5F5CA96E
:101870004C090020B98100003A00003A08B5064939
:1018800006484023142205F0B7FFBDE8084004498C
:10189000044805F0BFB900BF4C0400204C090020EB
:1018A000D07B0000E47B0000014910220A607047F1
:1018B00010ED00E072B6404080F31188BFF36F8FE7
:1018C000BFF34F8F30BF62B6BFF36F8F704700BF5B
:1018D00072B6494081F31188BFF34F8F20BF80F368
:1018E000118862B6704700BF40B2002807DB044A87
:1018F0004109012300F01F00834042F82130704766
:1019000000E100E0054B420900F01F0053F82220DF
:10191000012303FA00F01040704700BF00E100E02F
:1019200038B54B1C072B04460D460FD9114A1249F6
:1019300012485B2305F0B1FB1148294607232246D4
:1019400005F0ABFB0B485B2105F0A0FB40B2002883
:10195000ACBF00F160400B4A4FEA4313B8BF00F040
:101960000F00DBB2AABF00F56140135480F80033CA
:1019700038BD00BFE68100001C820000A37E00008D
:101980003782000014ED00E030BFFFF7FDBF00BF5D
:101990000B4A08B50B4B22F07F029A60BFF34F8FC2
:1019A000BFF36F8FD3F8882022F47002C3F8882029
:1019B00002F082FF04F042FD00F024FA02F0C0FFC2
:1019C0000000000000ED00E0094A0A499368096838
:1019D0009967094958674B6843F080534B6000236F
:1019E00083F31188BFF36F8F9368986F704700BFC0
:1019F000F80A0020607D000000ED00E012498A68CE
:101A00004FF030001044EFF3098C80E8F01F2020E5
:101A100080F31288BFF36F8F0C4F4FF00066CA69D6
:101A20008A603E60506F0023536780F3118804B5CD
:101A3000104600F083FABDE8044002F1300090E85F
:101A4000F01F8CF309887047F80A002004ED00E0CD
:101A50001EF0040F0CBFEFF30880EFF309808169DB
:101A600011F8021C0229FFD001B505F02AFB01BDC7
:101A700042F8203C009B42F81C3C0A49019B42F87A
:101A8000183C029B42F8143C21F001014FF0807396
:101A900042F8043C42F8081C0023203A02654367E0
:101AA000704700BF9B6E0000094A0346906870B102
:101AB00013F1160F406E05D0A0F140029A4205D8EE
:101AC000834203D2814228BF002070470020704724
:101AD000F80A002008B5094B98600D46144600F03E
:101AE0002DFA204685F30988002163B681F3118819
:101AF000BFF36F8F0022002305F0CFF9F80A002012
:101B000001B572B60B4A906900281EBF0021916191
:101B100005F087FE62B6EFF30580A0F110004FEAF2
:101B2000C0000549014409C99847BDE8014003497F
:101B300008470000F80A0020A8790000411B0000B7
:101B4000044B9968D869884203D003494FF080520A
:101B50000A607047F80A002004ED00E070B5254BDC
:101B600014469A6A9A6A9A6A920705462AD5586B69
:101B70009A6A160626D519B19A6A22F080029A62EC
:101B80009A6A9A6A9A6AD10602D49B6A9A072ED5F3
:101B9000184E73681B052AD52946FFF785FFA0B1AB
:101BA00080F309880220134B9A6A920642BF5A6A50
:101BB00022F400525A629A6A42F0FF029A620023AB
:101BC000237070BD6FF01500DAE7B36AD9060ED541
:101BD00009490A4A0A484FF4AB7305F05EFA09480E
:101BE00005F05BFA05484FF4AB7105F04FFA0020A1
:101BF000D9E700BF00ED00E0B1820000778200006D
:101C0000A37E0000FB8200000D4B9A6A9A6A9A6AD2
:101C1000920508D59A6B9A6A120404D518B19A6A8B
:101C200022F400429A629A6A9A6AD205044A58BF1C
:101C30009B6A936A002043F47F4393620870704765
:101C400000ED00E070B55E4B5B688AB00546C3F3FB
:101C50000803002686F31188BFF36F8F02F07F40E0
:101C6000B0F17F4F08D102F00C00082804D0100713
:101C70004CBF0D46012675B95249534A53484FF49B
:101C8000846305F00AFA524805F007FA4FF48461BC
:101C90004D4805F0FBF90022033B8DF80720032B8C
:101CA0004BD8DFE803F0027D8185454BDA6A910766
:101CB00043D4DA6A002A40DBDA6A520063D55A69F3
:101CC000A96942F480725A61BFF34F8FBFF36F8FDF
:101CD0005A6931F8021C22F480725A61BFF34F8FA7
:101CE000BFF36F8F4DF60272914201D12C6825E04F
:101CF0009A6AD2B23AB10DF1070201212846FFF7E4
:101D00002DFF04461AE09A6A12F47F4F05D00DF1B8
:101D100007010120FFF778FFF3E79A6AB2F5803FE9
:101D200024D39A6A9A6A9A6A9A6A9A6A9A6A9A6AA0
:101D30006FEA02426FEA12429A6200249DF807306D
:101D400093B92022294602A805F0E4F9099B8EB335
:101D5000C3F3080222B96FEA53236FEA43230993BE
:101D600002A9204605F0ABF90AB070BD1949164A20
:101D7000164840F2F22305F090F9174805F08DF966
:101D800040F2F22184E713490F4A104840F2F6234B
:101D900005F083F9114805F080F940F2F62177E764
:101DA0000DF107020021A9E70DF107010020B1E7BD
:101DB000034BB6E723F4FF7323F00103CFE700BF23
:101DC00000ED00E01E83000077820000A37E00008B
:101DD00031830000A08000006F8300009383000027
:101DE000024A536943F010035361704700ED00E06D
:101DF000EFF30880EFF3098101B57246FFF722FF88
:101E000001BD00BF044800232021C2180133302B3C
:101E100082F80013F9D1704700E100E0002080F360
:101E20001488BFF36F8FFFF7B5FA00200D490860E3
:101E3000BFF34F8F0C4880F3088800F02BF8202068
:101E400080F3118809484FF40461401880F3098831
:101E5000EFF314800221084380F31488BFF36F8FDF
:101E6000FFF796FD94ED00E080270020C0190020C8
:101E70000749D1F890200023C2F307221846934265
:101E800000DB7047C1F89830C1F8A0000133F6E7D5
:101E900000ED00E008B572B6002383F31388FFF766
:101EA000E7FF144B4FF0FF32C3F88020C3F88420C3
:101EB000C3F88820C3F88C20C3F89020C3F894207E
:101EC000C3F89820C3F89C20C3F88021C3F884216C
:101ED000C3F88821C3F88C21C3F89021C3F894215A
:101EE000C3F89821C3F89C2162B6BFF34F8FBFF3AC
:101EF0006F8F08BD00E100E0084B9B6883420BD167
:101F0000EFF3058343B1064B5A6842F080525A60A2
:101F10005A6A22F400425A6204F0C8B9F80A002052
:101F200000ED00E0024B034A0348012100F070B8C5
:101F30000000042000000020F47B0000426E054BEE
:101F4000403A1A60044A4021C3E9011218460121AF
:101F500000F084B86C09002000000B15F0B5204E8D
:101F600000258D4239DA446874B353B104F1FF3C63
:101F700014EA0C0F2FD11F2C2DD907681CEA070F6C
:101F800029D1202C0768D0F808C05FFA82FE1ED93C
:101F9000B4F1004F1DD8013CB4FA84F4C4F11F041D
:101FA0006400BEF1070F4CEA040C14D827F01F049C
:101FB000144344F01004C6F89820C6F89C404CF036
:101FC0000104C6F8A040013201350C30C9E70824ED
:101FD000E7E73E24E5E76FF015021046F0BD00BFCD
:101FE00000ED00E0044B0522C3F89420BFF34F8FAF
:101FF000BFF36F8F704700BF00ED00E0BFF35F8F4E
:10200000024B0022C3F89420704700BF00ED00E0AF
:1020100038B50D4D01232A78FFF7A0FF2870163040
:102020000C460FD1094A0A490A484FF48D7305F04E
:1020300034F80948214605F030F804484FF48D7112
:1020400005F024F838BD00BF190D0020C78300003B
:10205000A0800000A37E0000FE83000010B5114A9E
:1020600000231278FFF77AFF10F1160F0C4603D009
:102070000D4A072810DD10BD0C4A0D490D4840F2ED
:10208000391305F00AF80C48214605F006F8074810
:1020900040F2391104F0FAFFC2F89800C2F8A030FB
:1020A0000130E6E7190D002000ED00E0C7830000D5
:1020B000A0800000A37E00002A840000254910B5FE
:1020C0000C68082C10D9244A2449254840F25113A1
:1020D00004F0E3FF21462348082204F0DEFF40F22B
:1020E00051111D4804F0D2FFFFF788FF48681E49D0
:1020F0000022944200F10C0016D11C4B1C70FFF71B
:1021000071FFD1F89030C3F30723082B1FD0184973
:10211000114A134840F2B71304F0BFFF154804F00A
:10212000BCFF40F2B711DCE7C1F8982050F80C3C36
:1021300023F01F03134343F01003C1F89C3050F801
:10214000043C43F00103C1F8A0300132D1E7002084
:1021500010BD00BF007C0000C7830000A08000000D
:10216000A37E00005784000000ED00E0190D002060
:102170008B840000DB840000014B1860704700BFB7
:102180002C00002010B54FF02003EFF3118083F3F3
:102190001288BFF36F8F114A0123C2F840354FF008
:1021A00080424FF08051C2F87835D1F83041082C88
:1021B00008D1D1F83411052904D8094C615C09B162
:1021C000C2F838364FF080430122C3F8802580F3EF
:1021D0001188BFF36F8F002010BD00BF00E00140E9
:1021E0000B8500004FF08043C0B2C3F81C05BFF35D
:1021F0004F8F0549054BCA6802F4E0621343CB6078
:10220000BFF34F8F00BFFDE700ED00E00400FA05CB
:1022100020B1034B800143F001031847704700BF12
:10222000C07B000037B50C460A490B4A411A4023CF
:102230000093491105462346084804F0A7FF011EF4
:1022400005DA2846234603B0BDE83040184703B0FE
:1022500030BD00BF8C090020F97100001879000022
:10226000C9B2012908B509D908490948094A7A2398
:1022700004F013FF07487A2104F008FF03690C22D9
:1022800001FB0233986C00F0070008BD5285000086
:10229000A37E00001585000070B5C9B2012903694D
:1022A0000BD9194919481A4A40F25D1304F0F5FE9A
:1022B000174840F25D1104F0E9FE4FF02004EFF3FF
:1022C000118584F31288BFF36F8F0C2606FB01344F
:1022D000A46C14F0C00408D0A24206D085F3118883
:1022E000BFF36F8F4FF0FF3070BD06FB013301224B
:1022F0009A6485F31188BFF36F8F436803EBC103C2
:102300005B6898470020EFE752850000A37E00003D
:102310001585000070B50D460649411A044649115D
:1023200005484022FFF7B8FF2B4601462046BDE88E
:10233000704018478C09002018790000002270B501
:10234000012104461046FFF7EBFA0F4801F092F91D
:102350000E4B984215D101F0B1F926690C4930466F
:1023600004F013FE00280BDB0125B564246908493D
:1023700004F1200004F009FE002801DB656500205F
:1023800070BD6FF00400FBE7C92300000000AD0B37
:10239000207C000070B501460C2309484B43C4184B
:1023A000D4E91056002248332264184404F0DBFEBE
:1023B0002DB132462B460348BDE87040184770BD2A
:1023C0008C09002018790000012808B506D00328E0
:1023D00008D098B90F4B9B6C5B0719D1BDE808403A
:1023E000FFF7D8BF0C490D4A0D4840F26E2304F0A8
:1023F00054FE40F26E21094804F048FE0649074A9F
:10240000074840F2722304F048FE40F27221F2E7DE
:1024100008BD00BF8C090020A080000015850000C9
:10242000A37E000008B54FF02003EFF3118183F382
:102430001288BFF36F8F124A136843F002001060D6
:10244000DA0708D481F31188BFF36F8F0120BDE84C
:10245000084001F057B94FF08043D3F80C24D3F86B
:102460000C34D307EED5074804F07DFE81F31188C4
:10247000BFF36F8F0020BDE80840FFF78BBF00BFA0
:10248000E4090020D40900201FB500220123CDE972
:102490000223094ACDF800D06B46CDF804D004F0F1
:1024A000A4FE002805DB4FF480420023684602F0BA
:1024B000C1FE05B05DF804FB1172000010B54FF0CD
:1024C0002003EFF3118483F31288BFF36F8F074A61
:1024D000136823F00201DB07116002D4012001F030
:1024E0006FF984F31188BFF36F8F10BDE4090020EA
:1024F0002DE9F0414549BFF35B8F0646012251E8C3
:10250000003F41E800200028F9D1BFF35B8FA3B959
:102510003F4940484B60CB608A60FEF7BDFA002817
:102520000BDA3D493D4A3E484FF40C7304F0B5FDCB
:102530004FF40C71394804F0A9FD76B3731E012BDA
:1025400059D8012E07D14FF08043D3F81C3403F043
:102550000303012B21D005F05EF90546F8B9314B94
:102560001B78E3B14FF080430222C3F808230746EB
:10257000DFF8B4804FF08044D4F81834D4F818242D
:10258000D20316D503F00303012B01D0012E10D185
:102590005DB387F31188BFF36F8FBDE8F0814FF013
:1025A0002003EFF3118783F31288BFF36F8F0125A8
:1025B000DEE7ADB13846FFF78BF9D4F81835002BBC
:1025C000DAD1D4F80421002AD6D0C4F80431D4F8E2
:1025D00004310123C4F81835C8F88031A360CBE773
:1025E0000021212003F028FEE7E74FF0804302227C
:1025F000C3F80423D1E70D49084A094840F24223B1
:1026000004F04BFD40F2422194E700BF880900200E
:1026100078090020AC0900207685000015850000AF
:10262000A37E00002E11002000E100E0A080000049
:1026300008B5074805F0BBF838B10648FFF79CFD20
:102640000448FDF783FF002008BD6FF01200FBE790
:1026500078790000592600000A2838B5074D04464D
:1026600004D1AB680D215B6828469847AB680348E6
:102670005B68E1B29847204638BD00BF787900001A
:1026800010B5036961B92049204A21482A2304F082
:1026900004FD204804F001FD2A211C4804F0F6FC4A
:1026A000486850B91C49194A19482B2304F0F5FC15
:1026B0001A4804F0F2FC2B21EFE75868F8B1884281
:1026C00019D19C6808685860A14200D19860002028
:1026D00008602AB15A680A609A68596002B999601C
:1026E000002010E0814206D108682060986881428D
:1026F000EDD19C60EBE7044600680028F2D1002A87
:10270000E8D16FF0150010BDD88500009C85000051
:10271000A37E0000E1850000F08500000286000035
:1027200030B54068057B01F01F04B2F5001F85B08D
:1027300044EA451405D1204601F054FB002005B0C1
:1027400030BD0025B2F5800FCDE9025514D1B3F1AB
:10275000007F0CBF042305238DF8083000231946A1
:1027600002AA204601F048F92B4B984251D1012191
:10277000204601F0CBFAE1E7B3F1C06F24D0B3F10A
:10278000007F14BF012302238DF808308368CB40FB
:10279000D807E3D4B2F1A07FE0D1620904F01F03AF
:1027A00014D0012A04D14FF6FF72DA40D10715D4B4
:1027B0001A491B481B4A40F2472304F06EFC194893
:1027C00040F2472104F062FC0323DDE74FF0FF32C3
:1027D000DA40D207ECD54FF0A04200E0124A03F5F0
:1027E000E07352F82330DB07B8D40DF10705294612
:1027F000204601F025FA0D4B984201D00395ADE734
:10280000284601F07DFA044B9842F7D06FF00B0098
:1028100095E76FF0150092E70000AD0B4C860000C5
:10282000A37E000019860000000300500400AD0BD9
:1028300010B501F055FA044668B901F029FA084BC1
:1028400098420AD10748214601F0F4F922460521B1
:102850000620FFF765F8002010BD6FF00400FBE7CD
:102860000000AD0B69280000420970B5034602D094
:10287000012A1ED070BD144E326951680029F9D06A
:1028800003F01F0301250C689D400029F2D08A68DF
:102890002A4012D04B6873B90C490D4A0D484D239C
:1028A00004F0FBFB0C4804F0F8FB09484D2104F050
:1028B000EDFB0A4EE0E7304698471CB123682146FD
:1028C0001C46E2E72346FAE7487900008C890000BD
:1028D0009C850000A37E0000028600003079000085
:1028E0002DE9FF41D0F8048098F80C3001F01F0565
:1028F00045EA43150F4628460DF10301144601F041
:102900009FF914F4403F064615D1284601F094FA89
:10291000494B9E4271D19DF8030001F0EBF9B042A2
:102920006BD04649464A47486A2304F0B6FB6A2101
:10293000434804F0ABFB0023194602AA2846CDE920
:10294000023301F059F83C4B984204D06FF0150067
:1029500004B0BDE8F08186420DD19DF8030001F07E
:10296000C9F9B04207D03549354A36487C2304F0CE
:1029700094FB7C21DCE7A6034ED540F206332340CE
:10298000B3F5837F19D00CD8062B17D004D8ABB180
:10299000022BDBD1042311E0B3F5807FD6D10123D4
:1029A0000CE040F20222934229D0B3F5407F28D0B8
:1029B000B3F5007FCAD1022300E007238DF804306D
:1029C00084F48033C3F30043E0068DF8053054BF30
:1029D000C4F34013032321038DF8063013D5D8F830
:1029E00004200123BB40C2F80835002201A9284673
:1029F00001F0ACF8104B9842A8D10020A8E70523BD
:102A0000DCE70323DAE7620341BF0123D8F804209F
:102A1000BB40C2F80C35E8E7E3064FF0000354BFB3
:102A2000C4F3401403241A4601A928468DF8044033
:102A300000F0E2FFDEE700BF0000AD0B9B86000068
:102A40006F860000A37E000008B543681B68D3F8BA
:102A50000805D3F80C1501F027FE034B984214BF6C
:102A60006FF00F00002008BD0000AD0B37B5044625
:102A7000002201210320FEF753FF63689D6901AA2C
:102A80000021284604F09AFC002814DB019B2A68E8
:102A90001979186804F0A5FC00280CDB606823692C
:102AA000064A00F1080101F0F3FB054B984214BF00
:102AB0006FF00F00002003B030BD00BFC52A00003A
:102AC0000000AD0B0378012B08D0022B08D04BB9C6
:102AD000054B0B6201F1100002F06EBB034BF8E7EF
:102AE000034BF6E7034BF4E70000AD0B0100AE0B20
:102AF0000200AE0B0100AD0B2DE9F04F8BB0054687
:102B00000C4690460193476806694FF0FF324FF03C
:102B1000FF33304602F08EFB06F1100A002200233C
:102B2000504602F087FB384601F022FCDFF8C0B0C7
:102B30004FF00009C14501D300242EE0237A03930E
:102B400013F008014DD112220DF11600029104F08C
:102B5000ECFA039B60680199069003F0010220687B
:102B60008DF8151013F0020F02998DF814200890BB
:102B70001DD108F1FF334B4502D9237D5B0718D5E2
:102B80007ABB202205A9384601F04AFC584512D0EC
:102B9000184B984228D06FF00404384601F00EFC20
:102BA000304602F009FB20460BB0BDE8F08F0A4624
:102BB000E8E74022E6E74FF480420023504602F067
:102BC00039FB30B1384601F0F9FB2846FFF73CFFEE
:102BD000E1E7336A5B4504F10C04DCD109F101093A
:102BE000A8E76FF08504D8E76FF00F04D5E700BFC2
:102BF0000000AD0B0B00AD0BF0B54B79012B26D0CF
:102C0000032B21D110258B79032B1DD1CE790EB149
:102C1000012E19D10A7912B1022A15D10E220B68A0
:102C20004468B3F5164F276867D02DD8B3F5165F03
:102C300066D016D8B3F5966F64D00AD8B3F5967FF0
:102C400063D0B3F5167F63D06FF0850054E00025A4
:102C5000D9E7B3F5166F5ED0B3F5965FF4D1384B74
:102C60003CE0B3F5E14F59D007D8B3F5615F57D0D9
:102C7000B3F5964FE8D1334B30E047F61224A34228
:102C8000E2D14FF4000329E0B3F5613F4AD013D8F5
:102C9000B3F5963F49D009D84DF6C024A34246D09B
:102CA000B3F5614FD0D14FF46B0317E0B3F5E13FBB
:102CB000CAD14FF0EB7311E0B3F5612F3AD008D8C9
:102CC000214CA34239D0B3F5E12FBDD14FF0E863D9
:102CD00004E01E4CA342B7D14FF080530469C7F8FB
:102CE0002435436835431B682A43C3F86C2503C960
:102CF000231D83E803000020F0BD4FF41D03EDE722
:102D0000134BEBE74FF49E23E8E74FF4A033E5E7DE
:102D10004FF41C33E2E74FF41D23DFE70D4BDDE7F3
:102D20000D4BDBE74FF06C73D8E70C4BD6E74FF455
:102D30006503D3E74FF07063D0E74FF08063CDE7D2
:102D400000B0130000A04E0090D0030040420F00DE
:102D50000050270000C0750000F03A0000903A01D2
:102D60002DE9F743476806693C680021C4F800155F
:102D70003060D7F80C90804601AA484604F01EFB4C
:102D8000051E54DB019BD9F800201979186804F05E
:102D900028FB051E4BDB311D4046FFF72DFF054686
:102DA000002844D17B6899071AD506F1180001F074
:102DB00047F9224B98423ED1337EDB0003F180433A
:102DC00003F5F83304F10C0204F59071C3F8101503
:102DD000C3F81425327E01239340194AC2F8043502
:102DE0000823C4F800353B7A53B9C4F81031D4F83D
:102DF00010317369C4F834350123C4F838352360C1
:102E00007B689A075CBF4FF48073C4F804337B6817
:102E1000DB0644BF4FF48003C4F804333369C4F8BD
:102E200044350023C4F848350123A360E3602846F5
:102E300003B0BDE8F0836FF00405F8E70000AD0BC8
:102E400000F00140F8B5044607690D4604F0E3FCC4
:102E5000B0B92E4B1B789BB16426606804F046FA2B
:102E600000BB012004F07CFB013EF6D100212120B3
:102E700003F0E2F9F0E786F31188BFF36F8FF5E70F
:102E80004FF02003EFF3118683F31288BFF36F8FA7
:102E90006068314604F02AFA90B986F31188BFF3CE
:102EA0006F8FEDE74FF02003EFF3118683F3128865
:102EB000BFF36F8F6068314604F018FA0028DAD04B
:102EC0003B691D70626838691368C3F844050120C6
:102ED000C3F848050020C3F82001D3F82051C3F8F7
:102EE00058015268D3F85801D20608D562681268B2
:102EF0000820C2F800054FF48002C3F80423012221
:102F00009A6081F31188BFF36F8FF8BD2E110020F6
:102F100070B40E49D1E90034D01AC31844F100044A
:102F200022F07F46C1E90034A6F50013B3F5400F47
:102F300009D2074B1B681A0A1B069C19054B42F164
:102F40000005C3E9004570BC03F088BC0003002005
:102F5000080A0020080300200D4B1868010A00062B
:102F6000BFF35F8F0B4BD3F80435181841F1000104
:102F7000B3F5801F0AD2084BD3E90023904271EBCE
:102F8000030303D210F1807041F10001704700BFCC
:102F9000080A002000100140080300202DE9F74333
:102FA0002F4CD4F8043399070BD5D4F8043143B12E
:102FB0002C4A0023C4F80431D4F8043113680133D7
:102FC0001360D4F80433DA032AD5BFF35B8F264BA2
:102FD00053E8002F22F0010143E800100028F7D148
:102FE000BFF35B8FD30702D4D4F84031C3B10025BF
:102FF000C4F84051D4F84031FFF7AEFF4FF0200342
:10300000EFF3118283F31288BFF36F8F174BD3E96D
:103010000267B042B94106D282F31188BFF36F8FC5
:1030200003B0BDE8F0834FF0FF384FF0FF39C3E93C
:103030000289D3E900101D604FF48033C4F848338F
:10304000C4F84051D4F8403182F31188BFF36F8F38
:103050000029E5D0009032463B4628468847DFE706
:1030600000100140080A0020000A0020F0020020A1
:103070002DE9F84F4B4DBFF35B8F06460F4655E8E1
:10308000008F28F0010345E80032002AF7D1BFF392
:103090005B8F454C4FF48039C4F80893BFF35F8FC2
:1030A000BFF36F8FFFF758FFB04271EB070308F0D3
:1030B000010840D23D4B301A67EB0101984271F193
:1030C00000014CD23A4BD3E902239F4208BF9642FB
:1030D0003ED04FF0000CC4F84893C4F840C126F02D
:1030E0007F40D4F84031DFF8CCA0834603216FF055
:1030F000020E2BF07F43C4F84035C4F84493D4F853
:103100000425AEEB02035B4423F07F4353451FD9F4
:10311000D4F840315BB1D4F80425131A23F07F436F
:10312000B3F5000F14D9C4F840C1D4F8403101EB15
:10313000020B0131DDE7204BBFF35B8F53E8001F2B
:1031400041F0010143E80012002AF7D1BFF35B8F81
:10315000174B1A4A1A60C3E9026700225A60B8F195
:10316000000F1CD0BFF35B8F55E8003F43F0010315
:1031700045E80032002AF7D1BFF35B8F4FF480336C
:10318000C4F804330C4BBFF35B8F1B68BFF35B8F3A
:10319000DB0742BF0A4B4FF40032C3F80021BDE801
:1031A000F88F00BF040A00200010014001008000D9
:1031B000F0020020FDFF7F00000A0020112F000018
:1031C00000E100E070B5164B164C00254FF0FF30C3
:1031D0004FF0FF31C4F80855C3E902014FF48033C2
:1031E000C4F80433104B02264FF40032C4F80463D1
:1031F0000121C3F8802111202A46FEF791FB1120FE
:10320000FEF772FB0123094AA360002123600848EE
:103210001360FFF72DFF3046FFF76AF9284670BDAF
:10322000F00200200010014000E100E0040A00204C
:10323000FFFF7F00431C10B51DD001281DDD104A83
:10324000104B9042D4BF04461C46FFF785FE0E4A41
:10325000D2E90031C01AB0F5000F0A4A28BF002495
:103260000444944228BF1446E01841F10001BDE82F
:103270001040FFF7FDBE034CE7E70124E5E700BF80
:10328000FEFF7F00FFFF7F000003002008B5FFF76F
:1032900063FE024B1B68C01A08BD00BF000300207C
:1032A00008B503685A090DD0012A14D00F491048F7
:1032B000104A40F2472303F0F0FE0E4840F2472147
:1032C00003F0E4FE4FF0FF3222FA03F3D907EDD505
:1032D0004FF0A04008E003F01F034FF6FF72DA4002
:1032E000D207E3D50360044808BD00BF4C86000048
:1032F000A37E000019860000000300504FF08053A9
:10330000D3F83021082A06D1D3F83431052B02D85E
:10331000024AD05C70470020704700BF278700003A
:10332000024AD2F80034002BFBD0704700E0014085
:1033300010B54FF08053D3F83021082A4ED14FF00A
:1033400080420021C2F80C11C2F81011C2F83815E1
:1033500002F54042D3F80414C2F82015D3F808143B
:10336000C2F82415D3F80C14C2F82815D3F8101499
:10337000C2F82C15D3F81414C2F83015D3F8181469
:10338000C2F83415D3F81C14C2F84015D3F8201431
:10339000C2F84415D3F82414C2F84815D3F82814F9
:1033A000C2F84C15D3F82C14C2F85015D3F83014C9
:1033B000C2F85415D3F83414C2F86015D3F8381491
:1033C000C2F86415D3F83C14C2F86815D3F8401459
:1033D000C2F86C15D3F84434C2F87035FFF78EFF8D
:1033E00018B13B4B3B4AC3F88C26FFF787FF18B157
:1033F000394BFB22C3F81825FFF780FF70B14FF05F
:1034000080414FF08053D1F8E42ED3F8583222F0A7
:103410000F0203F00F031343C1F8E43EFFF76EFF02
:1034200020B12E4B4FF40072C3F840264FF080536A
:10343000D3F83031082B1AD14FF08043D3F8002451
:10344000D20744BF6FF00102C3F800244FF080534D
:10345000D3F83431052B02D8214AD35C3BB14FF06D
:103460001023D3F808224FF08043C3F858254FF0BB
:103470001023D3F80022002A03DBD3F80432002BF8
:1034800022DA184901234FF01020C1F80435122424
:10349000FFF746FFC0F80042FFF742FFC0F80442C2
:1034A000FFF73EFF0023C1F80435FFF739FFBFF3F4
:1034B0004F8F0D490D4BCA6802F4E0621343CB6095
:1034C000BFF34F8F00BFFDE7094B0A4A1A6010BDDA
:1034D000005000404881030000F00040009002408E
:1034E0002187000000E0014000ED00E00400FA0543
:1034F000900000200090D00370B501250268BFF352
:103500005B8FB2FA82F3C3F11F03DBB205FA03F457
:1035100022EA040450E8006F964204D140E8004CCF
:10352000BCF1000FF6D1BFF35B8FE7D101480B7000
:1035300070BD00BF0000AD0B10B50368CB40DB07CA
:1035400014D401238B400268BFF35B8F43EA02016E
:1035500050E8004F944204D140E8001CBCF1000F39
:10356000F6D1BFF35B8FEED1014810BD0148FCE7F7
:103570000000AD0B0400AD0BF7B54FF080430446DF
:1035800058B1012828D036493648374AD82303F0A5
:1035900084FD3548D82103F079FD0222C3F80823C1
:1035A000C3F80401D3F804210122DA60074601239D
:1035B0008DF8073042F210754FF08046BCB1012CF7
:1035C00035D027492748294A40F2473303F065FDA3
:1035D000264840F24731DEE70022C3F80803C3F86B
:1035E0000021D3F8002158600DF10707DFE79FB1F4
:1035F000D6F8183403F003033B60D6F81834D80328
:1036000013D59DF80700012803D103F0A9FF013D60
:10361000D4D1012C09D114E0D6F81834D90304D53B
:10362000012003F09DFF013DF6D103B0F0BD67B16D
:10363000D6F80C3403F001033B70D6F80C34DA03EF
:10364000DFD40B4B00225A71EFE7D6F80C34DB03C2
:10365000F7D5012003F084FF013DF6D1F1E700BF6B
:10366000A0800000A37E00002D8700006A87000074
:103670000C0A002008B558B90A490B480B4A40F219
:10368000151303F00AFD094840F2151103F0FEFC82
:10369000074B1A7922B91860012206489A8008BDA2
:1036A0000548FCE79E870000A37E00002D870000F0
:1036B0000C0A00200000AD0B0C00AD0B08B50D4B43
:1036C0001B795BB90C490D480D4A4FF4977303F011
:1036D000E4FC0B484FF4977103F0D8FC0020FEF790
:1036E00011F908B9FEF700F94FF080430022C3F842
:1036F000182508BD0C0A0020AC870000A37E00003E
:103700002D87000008B5294B1B795BB92849294A48
:1037100029484FF4B47303F0C0FC4FF4B47125484A
:1037200003F0B4FC4FF0804358B1012834D0234952
:10373000204A21484FF4D37303F0AFFC4FF4D37108
:10374000EDE7D3F81824D3F81814C80312D502F003
:103750000303012B1AD14FF08042C2F81835002321
:10376000C2F80431D2F804310223C2F80433012331
:1037700093600AE0D3F81424D1070BD5D3F81C24A6
:10378000920704D40222C3F8042308BD13B1002019
:10379000FFF7F2FE0023DEE70022C3F80021D3F892
:1037A0000021C3F804031860EFE700BF0C0A0020F3
:1037B000AC8700002D870000A37E0000A0800000E1
:1037C00008B5094B1B795BB908490948094A40F219
:1037D000AD1303F062FC074840F2AD1103F056FC54
:1037E000BDE80840FFF7C8BE0C0A0020AC87000007
:1037F000A37E00002D87000010B54FF08043D3F862
:1038000000216AB10022C3F80021D3F8002101226F
:10381000C3F80823114B587910B95A711B6898479F
:103820004FF08043D3F8042172B10022C3F8042181
:10383000D3F80421D3F81824D3F81814920704D12C
:103840000122C3F818259A6010BD0222C3F808238C
:10385000024BBDE810401B68012018470C0A0020ED
:10386000034B083033F81000C0F34010704700BF1E
:1038700094000020044B083033F8100010F01C00B6
:1038800018BF0120704700BF94000020034B083090
:1038900033F81000C0F34000704700BF94000020D0
:1038A00070B500F108030C4C34F81330DA05054606
:1038B0000E4607D5C3F3432304EBC30254F8333059
:1038C00052689847A3682BB1E26831462846BDE8A4
:1038D0007040184770BD00BF9400002010B5184A12
:1038E000083032F81030D9051DD5C3F3432123F435
:1038F000F85322F8103002F10E04002034F8023F91
:1039000013F4807F03D0C3F3432399420BD00130DB
:103910003028F3D1002342F831300A48FFF70CFE7B
:10392000094B984200D110BD08490948094A4FF493
:10393000997303F0B2FB07484FF4997103F0A6FBAB
:1039400094000020080100200000AD0B9B860000C1
:10395000A37E0000D587000038B50246FFF780FF40
:10396000094C02F1080540B134F8153007495B0BEA
:1039700003F5A273002041F823001046FFF7AEFFC5
:10398000002324F8153038BD94000020006000406A
:1039900008B502680146104603F0E4FD58B9114924
:1039A000114A124840F2472303F077FB40F24721C7
:1039B0000D4803F06BFB02F01F0352090B600BD0A4
:1039C000012A0CD00A49084A08484FF4137303F03F
:1039D00064FB4FF41371EBE74FF0A04008BD0548BE
:1039E000FCE700BF4C86000019860000A37E0000A3
:1039F000A080000000030050F0B5044685B01746D3
:103A00001D46D9B103F0BFFD00BB0B46CDE9000058
:103A10008DF80E008DF80F000DF10F020DF10E0163
:103A2000204603F0BBFD444A04F1080132F811308E
:103A300023F0020343F0010322F811304FB3204674
:103A40003E787A68FFF722FF10B1BAB13B4822E016
:103A5000394B04F1080C33F81C1021F02001C90483
:103A6000C90C23F81C104AB1032EEFD87A681778D6
:103A70009EB9334B07F5A27743F827602E4A04F12D
:103A8000080132F8113023F01C0343EA860322F8C0
:103A900011303DBB2B4805B0F0BDBA0002F18042A9
:103AA00002F5C04241EA4731D2F8100520F0030088
:103AB000C2F81005D2F8100520F44F3020F4407001
:103AC000C2F810052002D2F810E500F47C5040EA5C
:103AD000064040EA0E0041F0200123F81C10C2F815
:103AE0001005CBE7D5E900672046FFF7F7FE002E6B
:103AF000D0D0114DD5E90023964201D19F4218D074
:103B000011480DF10F01FFF7F7FC0E4B9842C2D19F
:103B10009DF80F2045F8326005EBC20308345F6062
:103B200035F8143043EA422343F4807325F8143007
:103B3000B0E70022EEE700BF940000200400AD0BC8
:103B4000006000400000AD0B08010020F0B5044605
:103B500085B0154621B3FFF799FE20B92046FFF73F
:103B60007FFE00285ED12046FFF784FE10B14B781F
:103B7000012B57D001238DF80F300023CDE900131E
:103B80004A1C8B1C20460DF10F0103F007FD264A4D
:103B900004F1080132F8113043F0030322F8113028
:103BA00015B9224805B0F0BD2046FFF76FFEC8B337
:103BB0001D4E95F800C004F10807614636F817005D
:103BC000890020F0200001F18041C00401F5C041CE
:103BD000C00C26F817000023C1F810356A78002AB7
:103BE000DFD0D1F81035AD7823F4991323F4F853CE
:103BF000C1F81035D1F810E5230203F47C53120408
:103C000002F4403243EA0E0313432A0502F4801201
:103C100040EA4C30134340F0200026F81700C1F86A
:103C20001035BEE70248BDE7940000200000AD0B50
:103C30000400AD0B014BC3E9020170479400002062
:103C400008B5024659B90C490C480D4A40F23523D3
:103C500003F023FA0A4840F2352103F017FAFFF780
:103C6000FFFD38B1074B0848083233F812305B0BC0
:103C70000B7008BD0548FCE713880000A37E000018
:103C8000D5870000940000200000AD0B0400AD0BB0
:103C900038B50F4C94F87850BDB96022294604F12C
:103CA000100003F042FA0620FDF71EFE094B0A48F9
:103CB000C3F87C51D3F87C214FF00042C3F80423B1
:103CC000012384F87830636738BD0448FCE700BFFF
:103CD00094000020006000400000AD0B0500AD0B1B
:103CE000034B93F87800003818BF0120704700BFDD
:103CF0009400002001460148FFF71EBC040100208B
:103D000001460148FFF7F8BB0401002037B504461F
:103D1000FFF7B0FD58B92D492D4A2E4840F2DF3348
:103D200003F0BBF940F2DF31294803F0AFF9204638
:103D3000FFF796FD284A04F10805F8B12046FFF781
:103D4000A5FDD8B932F81520520B930003F1804439
:103D500004F5C24403F1804303F5C04320602068AA
:103D6000D3F8100540F00100C3F8100521B101237C
:103D700093401A4AC2F8043303B030BD49B9184918
:103D8000134A144840F2EE3303F087F940F2EE3163
:103D9000CAE732F81530C3F38203042B12D0052B87
:103DA00012D001A80194FFF7F3FD019BD0F8101584
:103DB000D94001F001010231204603B0BDE8304096
:103DC00003F039BC0321F7E70221F5E71D88000065
:103DD000D5870000A37E0000940000200060004012
:103DE0003288000008B50246FFF73AFDC8B1104618
:103DF000FFF74CFDA8B908320D4B0E4933F81230CD
:103E000001225B0B9A409B0003F1804303F5C04302
:103E1000C1F80823D3F8102522F00302C3F81025B7
:103E200008BDBDE808400021104603F004BC00BFF7
:103E3000940000200060004013B50E4B00F1080212
:103E4000044633F81230DB0711D5FFF7CBFF2046CD
:103E5000FFF782FD01A80194FFF79AFD019B03F58E
:103E6000E073022240F82320034802B010BD03484B
:103E7000FBE700BF940000200000AD0B0400AD0B79
:103E80002DE9F04F694B6A486A49002687B0012244
:103E900034461D6835B1D0F8045315421EBF1C606E
:103EA0001D68164304338B424FEA4202F1D1DFF81A
:103EB0008091D9F87C31002B00F09B804FF0A0431B
:103EC000D3F820250492C3F82025D3F820280592A2
:103ED000C3F820284FF000080DF1100A4FEA4813EC
:103EE00000934FF0010B4BE0009B534A94FAA4F46B
:103EF000B4FA84F41C44E00804F1080304F0070158
:103F000032F813701AF8003003940BFA01F123EA27
:103F10000103BA080AF8003003A80192FFF738FD40
:103F2000039B019A03F5E073C7F3820550F8233031
:103F300052072F46C3F301432CD539462046DDB244
:103F4000FFF7AEFC03A80394FFF722FD039B03F5E4
:103F5000E07350F82330C3F301439D4207D10021A1
:103F6000204603F068FB2946204603F064FB03A8C3
:103F70000394FFF70DFD039B0BFA03F3C0F8203504
:103F80005AF82840002CAFD1B8F1000F1DD14FF0E6
:103F90000108A3E7022B0CD10321204603F04BFBC1
:103FA00005F00503012BE2D139462046FFF778FCE6
:103FB000DDE702212046019303F03DFB032DF3D002
:103FC000019B032BD3D1022DEDE74FF0A042C9F89E
:103FD0007C41D9F87C311949D2F820350493C2F8D4
:103FE0002035D1F8202505921343C1F820257FF410
:103FF00071AF012416B907B0BDE8F08F96FAA6F3A9
:10400000B3FA83F304FA03F29B0003F1804303F550
:10401000C04326EA0206D3F81005D3F81015C0F302
:104020000520C1F30141FFF73BFCE3E700610040DD
:104030000060004020610040940000200003005018
:1040400001460148FFF758BA1001002008B503687F
:104050005A090DD0012A14D00F491048104A40F2D5
:10406000472303F01AF80E4840F2472103F00EF8F8
:104070004FF0FF3222FA03F3D907EDD54FF0A040FD
:1040800008E003F01F034FF6FF72DA40D207E3D5D2
:104090000360044808BD00BF4C860000A37E0000FA
:1040A000198600000003005013B53B4B0193002319
:1040B000C0F80431D0F80421C0F82431D0F824210C
:1040C000C0F81C31D0F81C21C0F80831D0F8082104
:1040D000C0F800324B6381F82F300123036291F85E
:1040E0002D209A4218BF83604B6B8A6A9342044624
:1040F0000ED24A6AD35CC0F81C350B6803B340F299
:1041000086238B608B682548C4F8043302B010BD49
:1041100091F82C3013B10123C361EEE70B6A13F061
:10412000400F4FF0010316BFC361436181F82D308A
:10413000E3E7204603F08EFA28B1019B013B01938F
:10414000019B002BF5DC91F82F305BB91348019BE4
:10415000002BDBDC0023C4F8003505231048C4F82D
:104160000035D3E7D4F8C434C4F8C4348BB10D4A55
:104170000B4813F0010F18BF104613F0020F02F1A5
:10418000010218BF104613F0040F074B18BF184662
:10419000DDE70348DBE700BFA08601000000AD0BB0
:1041A0000100AD0B0000AE0B0200AE0B13B5334B9C
:1041B00001930023C0F80431D0F80421C0F8243161
:1041C000D0F82421C0F81C31D0F81C21C0F80831E7
:1041D000D0F808214B6381F82F308B6A012B0446FD
:1041E00017D10B6A5B0614D40223C4F800320123F2
:1041F000236291F82D20022A18BF23600B688BB12F
:1042000040F286238B608B681D48C4F8043302B0EB
:1042100010BD0123E9E7204603F01CFA28B1019BF9
:10422000013B0193019B002BF5DC91F82F305BB92A
:104230001348019B002BEADC0023C4F8003505235A
:104240001048C4F80035E2E7D4F8C434C4F8C434E4
:104250008BB10D4A0B4813F0010F18BF104613F035
:10426000020F02F1010218BF104613F0040F074BB2
:1042700018BF1846DDE70348DBE700BFA086010052
:104280000000AD0B0100AD0B0000AE0B0200AE0B49
:104290002DE9F74306460C4649B92F492F48304AC5
:1042A000A42302F0FAFE2E48A42102F0EFFE90F8BB
:1042B00004802C4D3C2707FB08F7E91991F82E00E4
:1042C000002846D1D6F80090EA5188604B6081F80A
:1042D0002D0081F8310081F83000637B81F838309F
:1042E000A37B81F83930ABB92368019301A8FFF7AC
:1042F000ADFE019B03F5E07340F20C6740F82370BC
:1043000001A863680193FFF7A1FE019B03F5E07329
:1043100040F82370E37B2BB9D4E90023C9F80825C2
:10432000C9F80C35A368C9F824353C2303FB08F30E
:10433000EB5823B1306840F30730FDF7D5FA3C2342
:1043400003FB08550848012385F82E3003B0BDE86B
:10435000F0830648FAE700BF8D880000A37E0000C6
:1043600052880000140A00200000AD0B0500AD0BC0
:1043700008B50E4B02793C2101FB023393F82E2045
:10438000012A0BD00A490B480B4A40F20B1302F0EA
:1043900084FE094840F20B1102F078FE0268052104
:1043A000C2F80015022283F82E2008BD140A00204E
:1043B00096880000A37E00005288000008B5134BC9
:1043C00002793C2101FB023393F82E205AB910499F
:1043D0001048114A40F2171302F05FFE0E4840F2F7
:1043E000171102F053FE02680C49C2F80813D2F804
:1043F000001221F00301C2F800120021C2F80015DA
:10440000012283F82E2083F8301008BD140A002002
:10441000C0880000A37E000052880000864204008D
:104420002DE9F0470479414F3C2363430D46FB5887
:104430009446D3B90B78022B0BD13D493D4A3E48F7
:104440004FF4227302F029FE4FF42271394802F032
:104450001DFE032B09D13949364A374840F28923DA
:1044600002F01BFE40F28921F0E73C2303FB0473BA
:10447000D0F8009093F82D30012B04D12B78012B2C
:1044800006D12F4811E0022B02D12B78012BF8D155
:104490003C262C4BC9F8083306FB047696F83030DE
:1044A0002BB1B3682848C9F80433BDE8F0878CF015
:1044B0000403C3F3800386F83030C6F820C0A84652
:1044C000B8E80F0006F10C0EAEE80F00D8F8003087
:1044D000CEF800306B68B362EB6873626B78C9F832
:1044E00088352B78C4EB041A012B07EB8A0A17D006
:1044F0009BB9CCF3401C3C2303FB0473514683F867
:104500002CC04846FFF7D0FD3C235C433A193B5989
:10451000002BCAD182F83030C7E74FF0010CEAE730
:1045200051464846FFF742FEEEE700BF140A00205E
:10453000EC88000052880000A37E00003B89000048
:104540000500AD0B864204000B00AD0BF0B5394CF5
:10455000236887B05BB938493848394A40F2A92303
:1045600002F09BFD364840F2A92102F08FFD35484C
:10457000214603F06FF8002859D194F82F70FFB945
:10458000227B931E012B1BD8606AA369984217D126
:10459000E36963626369A362236A2A4884F82D7021
:1045A000C3F34013032A84F82C3004D107B0BDE8CC
:1045B000F040FFF779BD07B0BDE8F040FFF7F6BD6A
:1045C000214E0FCE01AD0FC533682B6047B31D4A96
:1045D000D2F8C434C2F8C43413F0020106D0012367
:1045E0008DF80030002384F8303007E013F0040227
:1045F00009D002238DF8003084F83010D4E900315E
:104600006846984713E013F0010305D003238DF8A3
:10461000003084F83020F1E704228DF80020E2E732
:10462000236A8DF800705B0784F83070E6D507B018
:10463000F0BD00BF140A00208A890000A37E00009C
:104640005288000000300040200A002008B50368AE
:104650005A090DD0012A14D00F491048104A40F2CF
:10466000472302F01AFD0E4840F2472102F00EFDEA
:104670004FF0FF3222FA03F3D907EDD54FF0A040F7
:1046800008E003F01F034FF6FF72DA40D207E3D5CC
:104690000360044808BD00BF4C860000A37E0000F4
:1046A0001986000000030050F7B50C46064603F0DB
:1046B00069F8204603F066F801A80196FFF7C6FFE7
:1046C000019B019403F5E07340F20D6540F823501F
:1046D00001A8FFF7BBFF019B03F5E073012740F83A
:1046E0002350042002F03CFF092501A80194FFF7A4
:1046F000ADFF019AD0F81035D340DB0715D401A8DF
:104700000196FFF7A3FF019B07FA03F3C0F80C35EE
:10471000042002F025FF304603F034F8013D042068
:1047200002F01EFF15F0FF05DFD101A80194FFF78D
:104730008DFF019A01239340C0F80C35042002F04C
:104740000FFF204603F01EF8042002F009FF01A825
:104750000194FFF77BFF019AD0F810350348D3404E
:1047600003F00103C01A03B0F0BD00BF0100AD0BA0
:1047700010B5144C144A1549032323616361144B8B
:10478000A261E3614FF4806323620023A36263624A
:10479000E36222660F4A62661022A266E01D23676A
:1047A000E366636702F09CFCBFF35F8F0A49204613
:1047B00002F096FCBFF35F8F2023A371BFF35F8FDE
:1047C00010BD00BF500A0020A1890000AA89000086
:1047D0002E0D00201E0D0020AE890000F8B5044605
:1047E0000E464FF02003EFF3118783F31288BFF3D7
:1047F0006F8F01F055FD31460546204602F0A0FEC0
:10480000042C0CD10A490B4A0B48932302F045FCB7
:104810000A4802F042FC0748932102F037FC87F374
:104820001188BFF36F8F2846BDE8F840FDF764BBE1
:10483000D7890000B5890000A37E0000F48900003C
:104840000F4B70B553F82040013053F82060A6425A
:1048500000D870BDD4E90035284698476DB138B10D
:104860000028B8BF4042EB68FF28A8BFFF2018709F
:10487000EA68537843F0010353700834E7E700BF58
:10488000647D000008B50A4B012203201A70FFF76F
:10489000D7FF02F0D7F80420FFF7D2FF00F052FA5A
:1048A000FBF706FE034A137B23F00103137308BDD5
:1048B0002E1100209003002008B50348034A002170
:1048C000121A02F07FFF08BDF00100203011002015
:1048D00070B5002386B00122CDE90423134E144D98
:1048E00001930F22CDE902321249182303FB005530
:1048F00006EBC01604464FF4C07000FB04110E4BCB
:1049000000954FF4A072304600F07EF9737B0B4A9D
:10491000EE6023F0040373734FF4046304FB03336A
:1049200013442C756B6006B070BD00BF10030020EF
:10493000F80A002000220020994E0000C019002033
:1049400080B50020A6B0FFF77BFF2E4B83F30888CD
:104950002D4D2E4E6B692E4F43F400736B61002476
:10496000E02385F82230EC772C766C76AC7685F8EF
:1049700020406B6A43F4E0236B6285F82340FDF727
:104980002FFAFCF791FF4FF0FF33AB62EB6206ADFD
:10499000FDF794FBFDF7C6FA40F201132846ADF887
:1049A0002430CDE91F4402F047F8B56002F0FEFE66
:1049B0000120FFF745FF0220164DFFF741FF01F0F0
:1049C000F5FA154BF5610593012314490094CDE9DF
:1049D00003434FF480623B46CDE90144284600F092
:1049E00013F96A7B064622F0040228466A7300F037
:1049F00091FD2046FFF76CFF3A4631462846FDF709
:104A000069F800BF0022002000ED00E0F80A002055
:104A10008548000090030020298A000080230020A0
:104A200038B50D4C0D4D0020AC4213D90C490D4A40
:104A30000D483D2302F031FB0C4802F02EFB0948E3
:104A40003D2102F023FB204602F0C0FE002802DBDD
:104A50002034E9E7F7D338BD880100208801002021
:104A6000568A0000318A0000A37E0000738A00008D
:104A70002DE9F74304460E4690461F4600F108050F
:104A80004FF02003EFF3118983F31288BFF36F8F88
:104A9000284600F0DBF968B9234A244924489423C6
:104AA00002F0FBFA2946234802F0F7FA94211E4847
:104AB00002F0ECFA284600F0E7F9A369B3B13360DD
:104AC0001B68A361E3690133E3610024284600F019
:104AD000CBF918BB144A18491548C22302F0DDFA75
:104AE0002946164802F0D9FAC221E0E758EA07023F
:104AF00003D133606FF00B04E8E72246CDE900876D
:104B00004946284601F01AF8044618B90C4B9B6830
:104B10005B693360204603B0BDE8F08389F31188F8
:104B2000BFF36F8FF6E700BFB8800000118100006F
:104B3000A37E000026810000E5800000FC800000CC
:104B4000F80A00202DE9F04104460E4600F1080560
:104B50004FF02003EFF3118783F31288BFF36F8FB9
:104B6000284600F073F968B9214A22492248942363
:104B700002F093FA2946214802F08FFA94211C484A
:104B800002F084FA284600F07FF9D4F81880B8F1D2
:104B9000000F0FD1204601F0B9F958B132684261D7
:104BA000C0F8788000F0B6FC39462846BDE8F041F0
:104BB00000F0F6BC3368A2691A603368A361E36948
:104BC000013BE361284600F04FF958B9084A0C4907
:104BD0000948C22302F061FA29460A4802F05DFA48
:104BE000C221CCE787F31188BFF36F8FBDE8F08156
:104BF000B880000011810000A37E00002681000023
:104C0000E5800000FC800000F0B585B004460D9DF5
:104C10000F2D2ED1224883422FD104F158000732A4
:104C2000C4E91600A5730E98207322F0070501F160
:104C30004002C4E9192500260C9AA660042060737E
:104C4000C4E90666E673E66605F1400702920B9A30
:104C500001920F440A9A009220463A46FCF708FF58
:104C6000104B66659B6803B11B6F2367384605B020
:104C7000F0BD05F110001E28CFD90B4A0B490C4896
:104C80004FF4067302F009FA0A4829466FF00F0341
:104C90000E2202F002FA04484FF4067102F0F6F90F
:104CA000994E0000F80A0020928A0000B58A0000A0
:104CB000A37E0000358B0000F0B587B0DDE91276E9
:104CC0000446EFF3058575B119491A4A1A4840F2AE
:104CD000872302F0E2F9194802F0DFF9154840F2A3
:104CE000872102F0D3F90595109D04950F9D03953A
:104CF0000E9D02950D9D01950C9D0095FFF784FF7B
:104D0000B6F1FF3F08BFB7F1FF3F05D056EA0703F2
:104D100005D1204600F086FC204607B0F0BD0849CA
:104D20003A46334604F1180001F0F0FBF4E700BF07
:104D3000668B0000928A0000A37E0000788B000042
:104D40005D5E00002DE9F043394C3A4D87B0AC422E
:104D500026462AD93849394A394840F2EE2302F02A
:104D60009CF9384802F099F940F2EE21334802F0FC
:104D70008DF954F8043C059354F8103C049354F80E
:104D8000143C039354F8183C029354F81C3C0193D0
:104D900054F8203C009354E90A2354E90C01FFF72E
:104DA00033FF54F8303C5E65D1E7AE4204F1300485
:104DB000DFD300F089FC1E4CDFF88C904FF40046E6
:104DC00040F2E737AC422CD91B491C4A1C4840F240
:104DD0000D3302F062F91B4802F05FF940F20D3129
:104DE000C4E7636A5A1C0DD023EAE37300213846F6
:104DF000C3FB060151EAC333D4F8008004D1404616
:104E000000F010FC3034DDE74FF47A720023FBF73A
:104E100077F902460B4608F11800494601F076FB87
:104E2000F0E7DED307B0BDE8F04300F0B9BC00BF47
:104E3000287B0000287B00009D8B0000928A0000E8
:104E4000A37E0000738A00005D5E0000006838B138
:104E5000044B1B7D00F00300C01A18BF01207047EF
:104E600001207047F80A0020064A117D92680A4323
:104E70000168034691424FF0000004BF1860012012
:104E8000704700BFF80A0020024B1A7D9B6813434D
:104E900003607047F80A002008B5134CA36893F923
:104EA0000E30002B10DB114D4FF02002EFF3118379
:104EB00082F31288BFF36F8F01F03AFC2B78A06168
:104EC00063B9FCF7F7FCEFE709490A480A4A2723C8
:104ED00002F0E3F80848272102F0D8F8FCF7F8FAC6
:104EE0000028E1D1EDE700BFF80A00202E110020D4
:104EF000EB8B0000A37E0000CA8B00002DE9F3417C
:104F0000044617461E46EFF3058565B15849594AD0
:104F10005948652302F0C1F8584802F0BEF85548D8
:104F2000652102F0B3F84FF02003EFF3118883F30B
:104F30001288BFF36F8F5248FFF788FF60B9514A5C
:104F400051494D48942302F0A8F84D494F4802F0CA
:104F5000A4F894214B48E4E74948FFF795FFE3683C
:104F60004B4A9BB1A0689168884227D057EA060354
:104F70002CD14348FFF778FFA0B188F31188BFF325
:104F80006F8F6FF00F0002B0BDE8F081916891F96A
:104F90000E103B4821610133E3609368A360FFF783
:104FA00063FF68B9374A3B493348C22302F075F8BA
:104FB0003349394802F071F8C221CBE72169E8E7AB
:104FC00088F31188BFF36F8F0020DCE791F90E1092
:104FD00090F90E309942A8BF19466FF07E029142B7
:104FE000B8BF11468B4202DD02F022FC0546CDE936
:104FF000007623482246414600F0A0FD0028E3D079
:105000004FF02003EFF3118683F31288BFF36F8F05
:105010001B48FFF71BFF002891D01948FFF734FF0A
:10502000A068C0B1236821699C420AD04BB193F9B2
:105030000E309942A8BF19466FF07E039942B8BF5F
:10504000194602F0F5FB30B10D48314600F0A8FAE0
:105050006FF00A0097E7002DF6D10948FFF704FF2B
:1050600000289FD086F31188BFF36F8FF0E700BF51
:10507000668B0000138C0000A37E0000358C0000BE
:10508000200B0020B8800000118100002681000064
:10509000F80A0020E5800000FC80000070B504469E
:1050A000EFF3058666B13849384A3948CD2301F017
:1050B000F4FF384801F0F1FFCD21344801F0E6FF5C
:1050C0008368002B59D0344A9268934258D1C36800
:1050D0003BB932492D4A2E48E52301F0DEFFE52198
:1050E000EBE7012B03D0013BC360002070BD4FF004
:1050F0002003EFF3118583F31288BFF36F8F2848E5
:10510000FFF7A4FE60B9274A27492148942301F0FC
:10511000C4FF2349254801F0C0FF94212148CDE771
:105120001F48FFF7B1FE2169A06802F081FB20460D
:1051300000F0ECFEA06050B190F90E20226186676D
:1051400000F0E8F91648294600F02AFACDE7E060B9
:105150001348FFF789FE58B9124A15490C48C22373
:1051600001F09BFF0E49134801F097FFC221D5E7DC
:1051700085F31188BFF36F8FB7E76FF01500B5E7C0
:105180004FF0FF30B2E700BF668B0000138C0000C9
:10519000A37E0000358C0000F80A00205A8C000025
:1051A000200B0020B8800000118100002681000043
:1051B000E5800000FC80000038B504464FF0200375
:1051C000EFF3118583F31288BFF36F8F1448FFF755
:1051D0003DFE68B9134A14491448942301F05DFF59
:1051E0000F49134801F059FF0E48942101F04EFF7A
:1051F0000B48FFF749FE204600F088FE48B1002228
:10520000826700F087F929460548BDE8384000F07C
:10521000C7B9D4E902329A4218BF0133A360F2E75A
:10522000240B0020B880000011810000A37E000044
:1052300026810000F7B5044616461D46EFF30583A8
:105240007BB152EA05030CD02D492E4A2E48792312
:1052500001F023FF2D4801F020FF2A48792101F0B9
:1052600015FF4FF02003EFF3118783F31288BFF38C
:105270006F8F2748FFF7EAFD60B9264A2649224882
:10528000942301F00AFF2249244801F006FF9421EB
:105290002048E4E71E48FFF7F7FDA368C3B1013BD0
:1052A0001B48A360FFF7E0FD58B91A4A1C4916488D
:1052B000C22301F0F2FE16491A4801F0EEFEC221A7
:1052C000E6E787F31188BFF36F8F002003B0F0BDCE
:1052D00056EA05030BD10E48FFF7C6FD0028E4D0BF
:1052E00087F31188BFF36F8F6FF00F00EEE7CDE902
:1052F000006522463946064800F020FCE6E700BF7C
:10530000918C0000718C0000A37E0000DF8C0000F7
:10531000240B0020B88000001181000026810000CD
:10532000E5800000FC80000038B5074D2C6854B1C2
:10533000FDF7ACFF054B04441C6128680021BDE863
:10534000384001F03BBA38BD300B0020F80A00208D
:1053500038B5144D2B4653F8204F9C4200D004B969
:10536000EC68AB68A8B963B90F49104A10488923A3
:1053700001F093FE0F4801F090FE0C48892101F0E6
:1053800085FE5A7BD20604D1A26912B9DA897F2A36
:1053900005D89C4202D02046FFF7C6FF2346EB61AA
:1053A00038BD00BFF80A0020048D0000E28C000028
:1053B000A37E0000DF8C000070B590F90D30427BB9
:1053C000002B38DBD30636D18369002B33D162F052
:1053D0007F024273184A904209D118491848194A65
:1053E000BA2301F05AFE1748BA2101F04FFE1649C0
:1053F0000A4652F8204F944218BF23464C6A23B9FC
:10540000C0E90024206048620CE090F90E5093F946
:105410000E60B5420BD0AE4209DD5A68C0E90032D9
:1054200010605860BDE870400020FFF791BFA342B4
:10543000E6D01B68E3E770BD100300202B8D000051
:10544000A37E0000E28C0000F80A0020F8B50446B4
:105450000D464FF02003EFF3118783F31288BFF35B
:105460006F8F2248FFF7F2FC68B9214A2149224890
:10547000942301F012FE1D49204801F00EFE9421F4
:105480001B4801F003FE19480026FFF7FDFC4FF40E
:10549000004C40F2E73031464FF47A720023E4FBCF
:1054A0000C01FAF72DFEB44202DD0228B8BF02203B
:1054B000134A144B1060144A98681E611560FFF778
:1054C00033FF0A48FFF7D0FC58B9094A0F490A4888
:1054D000C22301F0E2FD05490D4801F0DEFDC221C5
:1054E000CEE787F31188BFF36F8FF8BD340B002030
:1054F000B880000011810000A37E0000268100001A
:10550000300B0020F80A00202C0B0020E580000062
:10551000FC80000038B504464FF02003EFF31185FE
:1055200083F31288BFF36F8F1648FFF78FFC68B9BB
:10553000154A16491648942301F0AFFD1149154844
:1055400001F0ABFD9421104801F0A0FD0D48FFF7DC
:105550009BFC2046FFF730FF0A48FFF785FC58B94F
:10556000094A0D490A48C22301F097FD05490B4835
:1055700001F093FDC221E6E785F31188BFF36F8F39
:1055800038BD00BF340B0020B8800000118100003E
:10559000A37E000026810000E5800000FC80000062
:1055A00070B504460D46E9B9EFF30586D6B9184B38
:1055B000DA699B689A4215D0FFF756FC68B9154A1C
:1055C00015491648E12301F068FD2146144801F011
:1055D00064FDE1210F4801F059FD3046BDE87040FF
:1055E000FCF7F2B92046FFF73FFC58B9094A0A49CF
:1055F0000A48C22301F051FD2146094801F04DFD42
:10560000C221E7E785F31188BFF36F8F70BD00BF3C
:10561000F80A0020B8800000E5800000A37E0000AA
:10562000FC80000038B504464FF02003EFF31185ED
:1056300083F31288BFF36F8F1C48FFF707FC68B92C
:105640001B4A1C491C48942301F027FD17491B489D
:1056500001F023FD9421164801F018FD1348FFF7CF
:1056600013FC637B5A0714D41048FFF7FDFB58B9AD
:105670000F4A13491048C22301F00FFD0B4911488E
:1056800001F00BFDC221E6E785F31188BFF36F8FB0
:1056900038BD23F0040320466373FFF78DFE2946CF
:1056A0000248BDE83840FFF77BBF00BF340B002045
:1056B000B880000011810000A37E00002681000058
:1056C000E5800000FC80000010B54FF02003EFF3F0
:1056D000118483F31288BFF36F8F2548FFF7B6FB61
:1056E00060B9244A24492548942301F0D6FC204976
:1056F000234801F0D2FC94211E4810E01C48FFF71B
:10570000C3FBEFF3058363B11E491F4A1B48FD230A
:1057100001F0C3FC1D4801F0C0FCFD211A4801F056
:10572000B5FC1B4B9A68D37B012B0AD11949164A49
:105730001248FE2301F0B1FC144801F0AEFCFE213A
:10574000ECE7013BD3730A48FFF78EFB58B9094ACF
:1057500011490A48C22301F0A0FC05490F4801F095
:105760009CFCC221C8E784F31188BFF36F8F10BD82
:10577000340B0020B880000011810000A37E0000DF
:1057800026810000668B00004C8D0000DF8C00003D
:10579000F80A0020778D0000E5800000FC80000002
:1057A00010B54FF02003EFF3118483F31288BFF399
:1057B0006F8F2948FFF74AFB60B9284A28492948D2
:1057C000942301F06AFC2449274801F066FC9421E7
:1057D000224813E02048FFF757FB244B9A68D37BFD
:1057E00073B92349234A1F4840F2E73301F055FCBF
:1057F000214801F052FC40F2E7311E4801F046FC1E
:10580000EFF3058060B11D491A4A16484FF47A73C8
:1058100001F043FC184801F040FC4FF47A71ECE7CA
:105820000133D373FFF794FD0B48FFF71DFB58B905
:105830000A4A13490B48C22301F02FFC06491148BC
:1058400001F02BFCC221C3E784F31188BFF36F8FF3
:10585000BDE8104002F007B8340B0020B88000000B
:1058600011810000A37E000026810000F80A0020BC
:10587000A88D0000E28C0000DF8C0000668B000029
:10588000E5800000FC80000008B50B4B99420BD16D
:105890000A490B480B4A40F2734301F0FEFB0948EA
:1058A00040F2734101F0F2FBD1E9003213605A601B
:1058B0000023C1E9003308BD100300202B8D000038
:1058C000A37E0000E28C000070B590F90D20437BB0
:1058D000002A044606DA03F07F03437301461D489D
:1058E000FFF7D2FF637B63F07F0363731A4B9C4225
:1058F00009D11A491A481B4ABA2301F0CEFB1948AC
:10590000BA2101F0C3FB184A1146506A51F8203FF2
:105910008B4208BF002323B9C4E90010046054621D
:105920000CE094F90E5093F90E60B5420ED0AE42E1
:105930000CDD5968C4E900310C605C609068031BA1
:105940005842BDE870405841FFF702BD9842E3D08D
:105950001B68E0E7180B0020100300202B8D0000CF
:10596000A37E0000E28C0000F80A002070B5054616
:105970004FF02003EFF3118683F31288BFF36F8F8C
:105980002948FFF763FA68B9284A29492948942326
:1059900001F083FB2449284801F07FFB9421234830
:1059A00001F074FB2048FFF76FFA244B244A9C68EF
:1059B00011688C4212D12046FFF7B6FC1A48FFF757
:1059C00053FA58BB194A1F491A48C22301F065FB14
:1059D00015491D4801F061FBC221E0E7002111607B
:1059E0001A4A1268C2B1E2897F2A15D8627BD206B0
:1059F00012D1174A94F90E10126891420CDB154A25
:105A0000944209D01A69AA4203DC2046FFF75CFFE2
:105A1000D1E7521B1A61D1E70022FBE786F3118818
:105A2000BFF36F8F70BD00BF340B0020B880000043
:105A300011810000A37E000026810000F80A0020EA
:105A4000280B0020E5800000FC800000300B0020C7
:105A50002C0B00201003002010B590F90D20437B83
:105A6000002A044606DA03F07F0343730146064822
:105A7000FFF70AFF054B9868031B5842BDE810402A
:105A80005841FFF765BC00BF180B0020F80A002042
:105A900038B504460D46FFF7DFFF637B43F0020392
:105AA00063734DB3154BA5609C4209D11449154849
:105AB000154ABA2301F0F1FA1348BA2101F0E6FAC7
:105AC0002B689D4209D16B68C4E900531C606C606F
:105AD00012E06A689342F6D01B68002BF3D094F969
